{
  "contractName": "CourseMarketplace",
  "abi": [
    {
      "inputs": [],
      "stateMutability": "nonpayable",
      "type": "constructor"
    },
    {
      "inputs": [],
      "name": "CourseHasOwner",
      "type": "error"
    },
    {
      "inputs": [],
      "name": "CourseIsNotCreated",
      "type": "error"
    },
    {
      "inputs": [],
      "name": "InValidState",
      "type": "error"
    },
    {
      "inputs": [],
      "name": "OnlyOwner",
      "type": "error"
    },
    {
      "inputs": [],
      "name": "SenderIsNotCourseOwner",
      "type": "error"
    },
    {
      "inputs": [],
      "name": "isStoped",
      "outputs": [
        {
          "internalType": "bool",
          "name": "",
          "type": "bool"
        }
      ],
      "stateMutability": "view",
      "type": "function",
      "constant": true
    },
    {
      "stateMutability": "payable",
      "type": "receive",
      "payable": true
    },
    {
      "inputs": [
        {
          "internalType": "uint256",
          "name": "amount",
          "type": "uint256"
        }
      ],
      "name": "withdraw",
      "outputs": [],
      "stateMutability": "nonpayable",
      "type": "function"
    },
    {
      "inputs": [],
      "name": "emergencyWithdraw",
      "outputs": [],
      "stateMutability": "nonpayable",
      "type": "function"
    },
    {
      "inputs": [],
      "name": "selfDestruct",
      "outputs": [],
      "stateMutability": "nonpayable",
      "type": "function"
    },
    {
      "inputs": [],
      "name": "stopContract",
      "outputs": [],
      "stateMutability": "nonpayable",
      "type": "function"
    },
    {
      "inputs": [],
      "name": "resumeContract",
      "outputs": [],
      "stateMutability": "nonpayable",
      "type": "function"
    },
    {
      "inputs": [
        {
          "internalType": "bytes16",
          "name": "courseId",
          "type": "bytes16"
        },
        {
          "internalType": "bytes32",
          "name": "proof",
          "type": "bytes32"
        }
      ],
      "name": "purchaseCourse",
      "outputs": [],
      "stateMutability": "payable",
      "type": "function",
      "payable": true
    },
    {
      "inputs": [
        {
          "internalType": "bytes32",
          "name": "courseHash",
          "type": "bytes32"
        }
      ],
      "name": "repurchaseCourse",
      "outputs": [],
      "stateMutability": "payable",
      "type": "function",
      "payable": true
    },
    {
      "inputs": [
        {
          "internalType": "bytes32",
          "name": "courseHash",
          "type": "bytes32"
        }
      ],
      "name": "activateCourse",
      "outputs": [],
      "stateMutability": "nonpayable",
      "type": "function"
    },
    {
      "inputs": [
        {
          "internalType": "bytes32",
          "name": "courseHash",
          "type": "bytes32"
        }
      ],
      "name": "deactivateCourse",
      "outputs": [],
      "stateMutability": "nonpayable",
      "type": "function"
    },
    {
      "inputs": [
        {
          "internalType": "address",
          "name": "newOwner",
          "type": "address"
        }
      ],
      "name": "transferOwnerShip",
      "outputs": [],
      "stateMutability": "nonpayable",
      "type": "function"
    },
    {
      "inputs": [],
      "name": "getCourseCount",
      "outputs": [
        {
          "internalType": "uint256",
          "name": "",
          "type": "uint256"
        }
      ],
      "stateMutability": "view",
      "type": "function",
      "constant": true
    },
    {
      "inputs": [
        {
          "internalType": "uint256",
          "name": "index",
          "type": "uint256"
        }
      ],
      "name": "getCourseHashAtIndex",
      "outputs": [
        {
          "internalType": "bytes32",
          "name": "",
          "type": "bytes32"
        }
      ],
      "stateMutability": "view",
      "type": "function",
      "constant": true
    },
    {
      "inputs": [
        {
          "internalType": "bytes32",
          "name": "courseHash",
          "type": "bytes32"
        }
      ],
      "name": "getCourseByHash",
      "outputs": [
        {
          "components": [
            {
              "internalType": "uint256",
              "name": "id",
              "type": "uint256"
            },
            {
              "internalType": "uint256",
              "name": "price",
              "type": "uint256"
            },
            {
              "internalType": "bytes32",
              "name": "proof",
              "type": "bytes32"
            },
            {
              "internalType": "address",
              "name": "owner",
              "type": "address"
            },
            {
              "internalType": "enum CourseMarketplace.State",
              "name": "state",
              "type": "uint8"
            }
          ],
          "internalType": "struct CourseMarketplace.Course",
          "name": "",
          "type": "tuple"
        }
      ],
      "stateMutability": "view",
      "type": "function",
      "constant": true
    },
    {
      "inputs": [],
      "name": "getContractOwner",
      "outputs": [
        {
          "internalType": "address",
          "name": "",
          "type": "address"
        }
      ],
      "stateMutability": "view",
      "type": "function",
      "constant": true
    }
  ],
  "bytecode": "0x608060405260008060006101000a81548160ff02191690831515021790555034801561002a57600080fd5b5061003a3361003f60201b60201c565b610083565b80600460006101000a81548173ffffffffffffffffffffffffffffffffffffffff021916908373ffffffffffffffffffffffffffffffffffffffff16021790555050565b6119d7806100926000396000f3fe6080604052600436106100ec5760003560e01c80636d11290b1161008a5780639cb8a26a116100595780639cb8a26a146102ca578063c4bc5da5146102e1578063d76821cb146102f8578063db2e21bc14610314576100f3565b80636d11290b146102105780638863dd1a1461024d578063935d7e6d1461027657806396cfda061461029f576100f3565b806339262572116100c65780633926257214610163578063442890d51461018c5780636136e1eb146101b757806362e4e6ac146101d3576100f3565b806312253a6c146100f8578063191797df1461010f5780632e1a7d4d1461013a576100f3565b366100f357005b600080fd5b34801561010457600080fd5b5061010d61032b565b005b34801561011b57600080fd5b506101246103b3565b604051610131919061168f565b60405180910390f35b34801561014657600080fd5b50610161600480360381019061015c9190611493565b6103c4565b005b34801561016f57600080fd5b5061018a6004803603810190610185919061146a565b610502565b005b34801561019857600080fd5b506101a16106ee565b6040516101ae9190611674565b60405180910390f35b6101d160048036038101906101cc919061146a565b610718565b005b3480156101df57600080fd5b506101fa60048036038101906101f5919061146a565b6108df565b6040516102079190611705565b60405180910390f35b34801561021c57600080fd5b5061023760048036038101906102329190611493565b610a07565b60405161024491906116aa565b60405180910390f35b34801561025957600080fd5b50610274600480360381019061026f9190611405565b610a24565b005b34801561028257600080fd5b5061029d6004803603810190610298919061146a565b610a9c565b005b3480156102ab57600080fd5b506102b4610d67565b6040516102c19190611720565b60405180910390f35b3480156102d657600080fd5b506102df610d71565b005b3480156102ed57600080fd5b506102f6610e2f565b005b610312600480360381019061030d919061142e565b610eb7565b005b34801561032057600080fd5b506103296110bc565b005b6103336106ee565b73ffffffffffffffffffffffffffffffffffffffff163373ffffffffffffffffffffffffffffffffffffffff1614610397576040517f5fc483c500000000000000000000000000000000000000000000000000000000815260040160405180910390fd5b60016000806101000a81548160ff021916908315150217905550565b60008054906101000a900460ff1681565b6103cc6106ee565b73ffffffffffffffffffffffffffffffffffffffff163373ffffffffffffffffffffffffffffffffffffffff1614610430576040517f5fc483c500000000000000000000000000000000000000000000000000000000815260040160405180910390fd5b6000600460009054906101000a900473ffffffffffffffffffffffffffffffffffffffff1673ffffffffffffffffffffffffffffffffffffffff16826040516104789061165f565b60006040518083038185875af1925050503d80600081146104b5576040519150601f19603f3d011682016040523d82523d6000602084013e6104ba565b606091505b50509050806104fe576040517f08c379a00000000000000000000000000000000000000000000000000000000081526004016104f5906116e5565b60405180910390fd5b5050565b60008054906101000a900460ff161561051a57600080fd5b6105226106ee565b73ffffffffffffffffffffffffffffffffffffffff163373ffffffffffffffffffffffffffffffffffffffff1614610586576040517f5fc483c500000000000000000000000000000000000000000000000000000000815260040160405180910390fd5b61058f81611210565b6105c5576040517f4db0c48300000000000000000000000000000000000000000000000000000000815260040160405180910390fd5b600060016000838152602001908152602001600020905060006002811115610616577f4e487b7100000000000000000000000000000000000000000000000000000000600052602160045260246000fd5b8160030160149054906101000a900460ff166002811115610660577f4e487b7100000000000000000000000000000000000000000000000000000000600052602160045260246000fd5b14610697576040517fce0ae65a00000000000000000000000000000000000000000000000000000000815260040160405180910390fd5b60018160030160146101000a81548160ff021916908360028111156106e5577f4e487b7100000000000000000000000000000000000000000000000000000000600052602160045260246000fd5b02179055505050565b6000600460009054906101000a900473ffffffffffffffffffffffffffffffffffffffff16905090565b60008054906101000a900460ff161561073057600080fd5b61073981611210565b61076f576040517f4db0c48300000000000000000000000000000000000000000000000000000000815260040160405180910390fd5b6107788161127f565b6107ae576040517fcce31cc400000000000000000000000000000000000000000000000000000000815260040160405180910390fd5b60006001600083815260200190815260200160002090506002808111156107fe577f4e487b7100000000000000000000000000000000000000000000000000000000600052602160045260246000fd5b8160030160149054906101000a900460ff166002811115610848577f4e487b7100000000000000000000000000000000000000000000000000000000600052602160045260246000fd5b1461087f576040517fce0ae65a00000000000000000000000000000000000000000000000000000000815260040160405180910390fd5b60008160030160146101000a81548160ff021916908360028111156108cd577f4e487b7100000000000000000000000000000000000000000000000000000000600052602160045260246000fd5b02179055503481600101819055505050565b6108e7611331565b600160008381526020019081526020016000206040518060a00160405290816000820154815260200160018201548152602001600282015481526020016003820160009054906101000a900473ffffffffffffffffffffffffffffffffffffffff1673ffffffffffffffffffffffffffffffffffffffff1673ffffffffffffffffffffffffffffffffffffffff1681526020016003820160149054906101000a900460ff1660028111156109c4577f4e487b7100000000000000000000000000000000000000000000000000000000600052602160045260246000fd5b60028111156109fc577f4e487b7100000000000000000000000000000000000000000000000000000000600052602160045260246000fd5b815250509050919050565b600060026000838152602001908152602001600020549050919050565b610a2c6106ee565b73ffffffffffffffffffffffffffffffffffffffff163373ffffffffffffffffffffffffffffffffffffffff1614610a90576040517f5fc483c500000000000000000000000000000000000000000000000000000000815260040160405180910390fd5b610a99816112ed565b50565b60008054906101000a900460ff1615610ab457600080fd5b610abc6106ee565b73ffffffffffffffffffffffffffffffffffffffff163373ffffffffffffffffffffffffffffffffffffffff1614610b20576040517f5fc483c500000000000000000000000000000000000000000000000000000000815260040160405180910390fd5b610b2981611210565b610b5f576040517f4db0c48300000000000000000000000000000000000000000000000000000000815260040160405180910390fd5b600060016000838152602001908152602001600020905060006002811115610bb0577f4e487b7100000000000000000000000000000000000000000000000000000000600052602160045260246000fd5b8160030160149054906101000a900460ff166002811115610bfa577f4e487b7100000000000000000000000000000000000000000000000000000000600052602160045260246000fd5b14610c31576040517fce0ae65a00000000000000000000000000000000000000000000000000000000815260040160405180910390fd5b60008160030160009054906101000a900473ffffffffffffffffffffffffffffffffffffffff1673ffffffffffffffffffffffffffffffffffffffff168260010154604051610c7f9061165f565b60006040518083038185875af1925050503d8060008114610cbc576040519150601f19603f3d011682016040523d82523d6000602084013e610cc1565b606091505b5050905080610d05576040517f08c379a0000000000000000000000000000000000000000000000000000000008152600401610cfc906116c5565b60405180910390fd5b60028260030160146101000a81548160ff02191690836002811115610d53577f4e487b7100000000000000000000000000000000000000000000000000000000600052602160045260246000fd5b021790555060008260010181905550505050565b6000600354905090565b60008054906101000a900460ff16610d8857600080fd5b610d906106ee565b73ffffffffffffffffffffffffffffffffffffffff163373ffffffffffffffffffffffffffffffffffffffff1614610df4576040517f5fc483c500000000000000000000000000000000000000000000000000000000815260040160405180910390fd5b600460009054906101000a900473ffffffffffffffffffffffffffffffffffffffff1673ffffffffffffffffffffffffffffffffffffffff16ff5b610e376106ee565b73ffffffffffffffffffffffffffffffffffffffff163373ffffffffffffffffffffffffffffffffffffffff1614610e9b576040517f5fc483c500000000000000000000000000000000000000000000000000000000815260040160405180910390fd5b60008060006101000a81548160ff021916908315150217905550565b60008054906101000a900460ff1615610ecf57600080fd5b60008233604051602001610ee4929190611633565b604051602081830303815290604052805190602001209050600060036000815480929190610f11906117fa565b919050559050610f208261127f565b15610f57576040517fb0fc2d9700000000000000000000000000000000000000000000000000000000815260040160405180910390fd5b8160026000838152602001908152602001600020819055506040518060a001604052808281526020013481526020018481526020013373ffffffffffffffffffffffffffffffffffffffff16815260200160006002811115610fe2577f4e487b7100000000000000000000000000000000000000000000000000000000600052602160045260246000fd5b8152506001600084815260200190815260200160002060008201518160000155602082015181600101556040820151816002015560608201518160030160006101000a81548173ffffffffffffffffffffffffffffffffffffffff021916908373ffffffffffffffffffffffffffffffffffffffff16021790555060808201518160030160146101000a81548160ff021916908360028111156110ae577f4e487b7100000000000000000000000000000000000000000000000000000000600052602160045260246000fd5b021790555090505050505050565b60008054906101000a900460ff166110d357600080fd5b6110db6106ee565b73ffffffffffffffffffffffffffffffffffffffff163373ffffffffffffffffffffffffffffffffffffffff161461113f576040517f5fc483c500000000000000000000000000000000000000000000000000000000815260040160405180910390fd5b6000600460009054906101000a900473ffffffffffffffffffffffffffffffffffffffff1673ffffffffffffffffffffffffffffffffffffffff16476040516111879061165f565b60006040518083038185875af1925050503d80600081146111c4576040519150601f19603f3d011682016040523d82523d6000602084013e6111c9565b606091505b505090508061120d576040517f08c379a0000000000000000000000000000000000000000000000000000000008152600401611204906116e5565b60405180910390fd5b50565b60008073ffffffffffffffffffffffffffffffffffffffff166001600084815260200190815260200160002060030160009054906101000a900473ffffffffffffffffffffffffffffffffffffffff1673ffffffffffffffffffffffffffffffffffffffff1614159050919050565b60003373ffffffffffffffffffffffffffffffffffffffff166001600084815260200190815260200160002060030160009054906101000a900473ffffffffffffffffffffffffffffffffffffffff1673ffffffffffffffffffffffffffffffffffffffff16149050919050565b80600460006101000a81548173ffffffffffffffffffffffffffffffffffffffff021916908373ffffffffffffffffffffffffffffffffffffffff16021790555050565b6040518060a00160405280600081526020016000815260200160008019168152602001600073ffffffffffffffffffffffffffffffffffffffff168152602001600060028111156113ab577f4e487b7100000000000000000000000000000000000000000000000000000000600052602160045260246000fd5b81525090565b6000813590506113c081611945565b92915050565b6000813590506113d58161195c565b92915050565b6000813590506113ea81611973565b92915050565b6000813590506113ff8161198a565b92915050565b60006020828403121561141757600080fd5b6000611425848285016113b1565b91505092915050565b6000806040838503121561144157600080fd5b600061144f858286016113c6565b9250506020611460858286016113db565b9150509250929050565b60006020828403121561147c57600080fd5b600061148a848285016113db565b91505092915050565b6000602082840312156114a557600080fd5b60006114b3848285016113f0565b91505092915050565b6114c581611757565b82525050565b6114d481611757565b82525050565b6114eb6114e682611757565b611843565b82525050565b6114fa81611769565b82525050565b61151161150c82611775565b611855565b82525050565b611520816117a1565b82525050565b61152f816117a1565b82525050565b61153e816117e8565b82525050565b6000611551601083611746565b915061155c826118dc565b602082019050919050565b600061157460008361173b565b915061157f82611905565b600082019050919050565b6000611597601083611746565b91506115a282611908565b602082019050919050565b60a0820160008201516115c36000850182611615565b5060208201516115d66020850182611615565b5060408201516115e96040850182611517565b5060608201516115fc60608501826114bc565b50608082015161160f6080850182611535565b50505050565b61161e816117de565b82525050565b61162d816117de565b82525050565b600061163f8285611500565b60108201915061164f82846114da565b6014820191508190509392505050565b600061166a82611567565b9150819050919050565b600060208201905061168960008301846114cb565b92915050565b60006020820190506116a460008301846114f1565b92915050565b60006020820190506116bf6000830184611526565b92915050565b600060208201905081810360008301526116de81611544565b9050919050565b600060208201905081810360008301526116fe8161158a565b9050919050565b600060a08201905061171a60008301846115ad565b92915050565b60006020820190506117356000830184611624565b92915050565b600081905092915050565b600082825260208201905092915050565b6000611762826117be565b9050919050565b60008115159050919050565b60007fffffffffffffffffffffffffffffffff0000000000000000000000000000000082169050919050565b6000819050919050565b60008190506117b982611931565b919050565b600073ffffffffffffffffffffffffffffffffffffffff82169050919050565b6000819050919050565b60006117f3826117ab565b9050919050565b6000611805826117de565b91507fffffffffffffffffffffffffffffffffffffffffffffffffffffffffffffffff82141561183857611837611871565b5b600182019050919050565b600061184e8261185f565b9050919050565b6000819050919050565b600061186a826118cf565b9050919050565b7f4e487b7100000000000000000000000000000000000000000000000000000000600052601160045260246000fd5b7f4e487b7100000000000000000000000000000000000000000000000000000000600052602160045260246000fd5b60008160601b9050919050565b7f5472616e73666572206661696c65642100000000000000000000000000000000600082015250565b50565b7f5472616e73666572206661696c64656400000000000000000000000000000000600082015250565b60038110611942576119416118a0565b5b50565b61194e81611757565b811461195957600080fd5b50565b61196581611775565b811461197057600080fd5b50565b61197c816117a1565b811461198757600080fd5b50565b611993816117de565b811461199e57600080fd5b5056fea264697066735822122026f5582a0c76044264b8165495b7eac85dcf7754d60e89dee3af8f3a746ac44764736f6c63430008040033",
  "immutableReferences": {},
  "source": "// SPDX-License-Identifier: MIT\npragma solidity >=0.4.22 <0.9.0;\n\ncontract CourseMarketplace {\n    enum State {\n        Purchased,\n        Activated,\n        Deactivated\n    }\n\n    bool public isStoped = false;\n\n    // mapping of courseHash to Course data\n    mapping(bytes32 => Course) private ownedCourses;\n\n    // mapping of courseID to courseHash\n    mapping(uint => bytes32) private ownedCourseHash;\n\n    // number of all courses + id of the course\n    uint private totalOwnedCourses;\n\n    address payable private owner;\n\n    constructor(){\n        setContractOwner(msg.sender);\n    }\n\n    /// Course has already a Owner!\n    error CourseHasOwner();\n    /// Only owner has an access!\n    error OnlyOwner();\n    /// Course has invalid state;\n    error InValidState();\n    /// Course is not created;\n    error CourseIsNotCreated();\n    /// Sender is not course owner!\n    error SenderIsNotCourseOwner();\n\n    modifier onlyOwner(){\n        if(msg.sender != getContractOwner()){\n            revert OnlyOwner();\n        }\n        _;\n    }\n    modifier onlyWhenNotStopped(){\n        require(!isStoped);\n         _;\n    }\n    modifier onlyWhenStopped(){\n        require(isStoped);\n         _;\n    }\n    // Contract can recieve ether\n    receive() external payable {}\n\n    function withdraw(uint amount) external onlyOwner{\n        (bool success, ) = owner.call{value: amount}(\"\");\n        require(success, \"Transfer failded\");   \n    }\n\n    function emergencyWithdraw() external onlyWhenStopped onlyOwner {\n        (bool success, ) = owner.call{value: address(this).balance}(\"\");\n        require(success, \"Transfer failded\");   \n    }\n\n    function selfDestruct() external onlyWhenStopped onlyOwner{\n        selfdestruct(owner);\n    }\n\n    function stopContract() \n        external \n        onlyOwner{\n        isStoped = true;\n    }\n\n    function resumeContract() \n        external \n        onlyOwner{\n        isStoped = false;\n    }\n\n    struct Course {\n        uint id; // 32 \n        uint price; // 32\n        bytes32 proof; // 32\n        address owner; // 20 \n        State state; // 1\n    }\n\n    function purchaseCourse(\n        bytes16 courseId,\n        bytes32 proof\n    ) external payable onlyWhenNotStopped {\n        bytes32 courseHash = keccak256(abi.encodePacked(courseId, msg.sender));\n        uint id = totalOwnedCourses++;\n\n        if(hasCourseOwnerShip(courseHash)){\n            revert CourseHasOwner();\n        }\n\n        ownedCourseHash[id] = courseHash;\n        ownedCourses[courseHash] = Course({\n            id: id,\n            price: msg.value,\n            proof: proof,\n            owner: msg.sender,\n            state: State.Purchased\n        });\n    }\n\n    function repurchaseCourse(bytes32 courseHash) external payable onlyWhenNotStopped{\n        if(!isCourseCreated(courseHash)){\n            revert CourseIsNotCreated();\n        }\n        if(!hasCourseOwnerShip(courseHash)){\n            revert SenderIsNotCourseOwner();\n        }\n\n        Course storage course = ownedCourses[courseHash];\n\n        if(course.state != State.Deactivated){\n            revert InValidState();\n        }\n\n        course.state = State.Purchased;\n        course.price = msg.value;\n\n    }\n\n    function activateCourse(bytes32 courseHash)external onlyWhenNotStopped onlyOwner{\n\n        if(!isCourseCreated(courseHash)){\n            revert CourseIsNotCreated();\n        }\n\n        Course storage course = ownedCourses[courseHash];\n\n        if(course.state != State.Purchased){\n            revert InValidState();\n        }\n\n        course.state = State.Activated;\n\n    }\n\n    function deactivateCourse(bytes32 courseHash)external onlyWhenNotStopped onlyOwner{\n\n        if(!isCourseCreated(courseHash)){\n            revert CourseIsNotCreated();\n        }\n\n        Course storage course = ownedCourses[courseHash];\n\n        if(course.state != State.Purchased){\n            revert InValidState();\n        }\n\n        // Send back amount of course if we deactivate the course\n        (bool success, ) = course.owner.call{value: course.price}(\"\");\n        require(success, \"Transfer failed!\");\n        //\n\n        course.state = State.Deactivated;\n        course.price = 0;\n    }\n\n    function transferOwnerShip(address newOwner) external onlyOwner{\n        setContractOwner(newOwner);\n    }\n\n    function getCourseCount() external view returns(uint){\n        return totalOwnedCourses;\n    }\n\n    function getCourseHashAtIndex(uint index) external view returns (bytes32){\n        return ownedCourseHash[index];\n    }\n\n    function getCourseByHash(bytes32 courseHash) external view returns (Course memory){\n        return ownedCourses[courseHash];\n    }\n    \n    function getContractOwner() public view returns(address){\n        return owner;\n    }\n\n    function isCourseCreated(bytes32 courseHash) private view  returns(bool){\n        return ownedCourses[courseHash].owner != 0x0000000000000000000000000000000000000000;\n    }\n\n    function setContractOwner(address newOwner) private {\n        owner = payable(newOwner);\n    }\n\n    function hasCourseOwnerShip(bytes32 courseHash) private view returns(bool){\n        return ownedCourses[courseHash].owner == msg.sender;\n    }\n\n}",
  "sourcePath": "/Users/alextostogan/Desktop/3F/learning/Solidity_React/marketplace-eth/contracts/CourseMarketplace.sol",
  "compiler": {
    "name": "solc",
    "version": "0.8.4+commit.c7e474f2.Emscripten.clang"
  },
  "schemaVersion": "3.4.9",
  "updatedAt": "2022-10-02T14:45:54.977Z",
  "networkType": "ethereum",
  "devdoc": {
    "kind": "dev",
    "methods": {},
    "version": 1
  },
  "userdoc": {
    "errors": {
      "CourseHasOwner()": [
        {
          "notice": "Course has already a Owner!"
        }
      ],
      "CourseIsNotCreated()": [
        {
          "notice": "Course is not created;"
        }
      ],
      "InValidState()": [
        {
          "notice": "Course has invalid state;"
        }
      ],
      "OnlyOwner()": [
        {
          "notice": "Only owner has an access!"
        }
      ],
      "SenderIsNotCourseOwner()": [
        {
          "notice": "Sender is not course owner!"
        }
      ]
    },
    "kind": "user",
    "methods": {},
    "version": 1
  }
}